{
  "contractName": "ACMainframeStake",
  "abi": [
    {
      "constant": false,
      "inputs": [
        {
          "name": "tokens",
          "type": "uint256"
        }
      ],
      "name": "withdrawStake",
      "outputs": [],
      "payable": false,
      "stateMutability": "nonpayable",
      "type": "function"
    },
    {
      "constant": false,
      "inputs": [],
      "name": "kill",
      "outputs": [],
      "payable": false,
      "stateMutability": "nonpayable",
      "type": "function"
    },
    {
      "constant": false,
      "inputs": [
        {
          "name": "tokens",
          "type": "uint256"
        }
      ],
      "name": "stakeTokens",
      "outputs": [
        {
          "name": "",
          "type": "uint256"
        }
      ],
      "payable": false,
      "stateMutability": "nonpayable",
      "type": "function"
    },
    {
      "constant": true,
      "inputs": [],
      "name": "totalStaked",
      "outputs": [
        {
          "name": "",
          "type": "uint256"
        }
      ],
      "payable": false,
      "stateMutability": "view",
      "type": "function"
    },
    {
      "constant": true,
      "inputs": [],
      "name": "owner",
      "outputs": [
        {
          "name": "",
          "type": "address"
        }
      ],
      "payable": false,
      "stateMutability": "view",
      "type": "function"
    },
    {
      "constant": false,
      "inputs": [
        {
          "name": "_sender",
          "type": "address"
        },
        {
          "name": "_value",
          "type": "uint256"
        },
        {
          "name": "_tokenContract",
          "type": "address"
        },
        {
          "name": "_extraData",
          "type": "bytes"
        }
      ],
      "name": "receiveApproval",
      "outputs": [],
      "payable": false,
      "stateMutability": "nonpayable",
      "type": "function"
    },
    {
      "constant": true,
      "inputs": [
        {
          "name": "_address",
          "type": "address"
        }
      ],
      "name": "hasStake",
      "outputs": [
        {
          "name": "",
          "type": "bool"
        }
      ],
      "payable": false,
      "stateMutability": "view",
      "type": "function"
    },
    {
      "constant": true,
      "inputs": [
        {
          "name": "_address",
          "type": "address"
        }
      ],
      "name": "amountStaked",
      "outputs": [
        {
          "name": "balance",
          "type": "uint256"
        }
      ],
      "payable": false,
      "stateMutability": "view",
      "type": "function"
    },
    {
      "inputs": [
        {
          "name": "_tokenContractAddress",
          "type": "address"
        }
      ],
      "payable": false,
      "stateMutability": "nonpayable",
      "type": "constructor"
    }
  ],
  "bytecode": "0x6060604052341561000f57600080fd5b604051602080610a2d83398101604052808051906020019091905050336000806101000a81548173ffffffffffffffffffffffffffffffffffffffff021916908373ffffffffffffffffffffffffffffffffffffffff160217905550606460038190555080600160006101000a81548173ffffffffffffffffffffffffffffffffffffffff021916908373ffffffffffffffffffffffffffffffffffffffff16021790555050610969806100c46000396000f30060606040526004361061008e576000357c0100000000000000000000000000000000000000000000000000000000900463ffffffff16806325d5971f1461009357806341c0e1b5146100b65780637547c7a3146100cb578063817b1cd2146101025780638da5cb5b1461012b5780638f4ffcb114610180578063e73e14bf14610224578063ef40a67014610275575b600080fd5b341561009e57600080fd5b6100b460048080359060200190919050506102c2565b005b34156100c157600080fd5b6100c9610495565b005b34156100d657600080fd5b6100ec6004808035906020019091905050610526565b6040518082815260200191505060405180910390f35b341561010d57600080fd5b6101156106b6565b6040518082815260200191505060405180910390f35b341561013657600080fd5b61013e6106c0565b604051808273ffffffffffffffffffffffffffffffffffffffff1673ffffffffffffffffffffffffffffffffffffffff16815260200191505060405180910390f35b341561018b57600080fd5b610222600480803573ffffffffffffffffffffffffffffffffffffffff1690602001909190803590602001909190803573ffffffffffffffffffffffffffffffffffffffff1690602001909190803590602001908201803590602001908080601f016020809104026020016040519081016040528093929190818152602001838380828437820191505050505050919050506106e5565b005b341561022f57600080fd5b61025b600480803573ffffffffffffffffffffffffffffffffffffffff169060200190919050506108a9565b604051808215151515815260200191505060405180910390f35b341561028057600080fd5b6102ac600480803573ffffffffffffffffffffffffffffffffffffffff169060200190919050506108f4565b6040518082815260200191505060405180910390f35b600073ffffffffffffffffffffffffffffffffffffffff163373ffffffffffffffffffffffffffffffffffffffff16141515156102fe57600080fd5b600560003373ffffffffffffffffffffffffffffffffffffffff1673ffffffffffffffffffffffffffffffffffffffff16815260200190815260200160002054811115151561034c57600080fd5b600160009054906101000a900473ffffffffffffffffffffffffffffffffffffffff1673ffffffffffffffffffffffffffffffffffffffff1663a9059cbb33836000604051602001526040518363ffffffff167c0100000000000000000000000000000000000000000000000000000000028152600401808373ffffffffffffffffffffffffffffffffffffffff1673ffffffffffffffffffffffffffffffffffffffff16815260200182815260200192505050602060405180830381600087803b151561041957600080fd5b6102c65a03f1151561042a57600080fd5b505050604051805190505080600560003373ffffffffffffffffffffffffffffffffffffffff1673ffffffffffffffffffffffffffffffffffffffff168152602001908152602001600020600082825403925050819055508060046000828254039250508190555050565b6000809054906101000a900473ffffffffffffffffffffffffffffffffffffffff1673ffffffffffffffffffffffffffffffffffffffff163373ffffffffffffffffffffffffffffffffffffffff161415610524576000809054906101000a900473ffffffffffffffffffffffffffffffffffffffff1673ffffffffffffffffffffffffffffffffffffffff16ff5b565b6000600160009054906101000a900473ffffffffffffffffffffffffffffffffffffffff1673ffffffffffffffffffffffffffffffffffffffff166323b872dd3330856000604051602001526040518463ffffffff167c0100000000000000000000000000000000000000000000000000000000028152600401808473ffffffffffffffffffffffffffffffffffffffff1673ffffffffffffffffffffffffffffffffffffffff1681526020018373ffffffffffffffffffffffffffffffffffffffff1673ffffffffffffffffffffffffffffffffffffffff1681526020018281526020019350505050602060405180830381600087803b151561062957600080fd5b6102c65a03f1151561063a57600080fd5b50505060405180519050151561064f57600080fd5b81600560003373ffffffffffffffffffffffffffffffffffffffff1673ffffffffffffffffffffffffffffffffffffffff168152602001908152602001600020600082825401925050819055508160046000828254019250508190555061012c9050919050565b6000600454905090565b6000809054906101000a900473ffffffffffffffffffffffffffffffffffffffff1681565b600160009054906101000a900473ffffffffffffffffffffffffffffffffffffffff1673ffffffffffffffffffffffffffffffffffffffff168273ffffffffffffffffffffffffffffffffffffffff1614151561074157600080fd5b8173ffffffffffffffffffffffffffffffffffffffff166323b872dd8530866000604051602001526040518463ffffffff167c0100000000000000000000000000000000000000000000000000000000028152600401808473ffffffffffffffffffffffffffffffffffffffff1673ffffffffffffffffffffffffffffffffffffffff1681526020018373ffffffffffffffffffffffffffffffffffffffff1673ffffffffffffffffffffffffffffffffffffffff1681526020018281526020019350505050602060405180830381600087803b151561082057600080fd5b6102c65a03f1151561083157600080fd5b50505060405180519050151561084657600080fd5b82600560008673ffffffffffffffffffffffffffffffffffffffff1673ffffffffffffffffffffffffffffffffffffffff168152602001908152602001600020600082825401925050819055508260046000828254019250508190555050505050565b600080600560008473ffffffffffffffffffffffffffffffffffffffff1673ffffffffffffffffffffffffffffffffffffffff16815260200190815260200160002054119050919050565b6000600560008373ffffffffffffffffffffffffffffffffffffffff1673ffffffffffffffffffffffffffffffffffffffff1681526020019081526020016000205490509190505600a165627a7a723058200d2fc784c5e96e0b945b613a9855d1d13af512d1ee74f13532047d5df4e422500029",
  "source": "pragma solidity ^0.4.11;\n\ncontract ERC20Token {\n  function transferFrom(address _from, address _to, uint256 _value) public returns (bool);\n  function transfer(address to, uint256 value) public returns (bool);\n}\n\ncontract ACMainframeStake {\n  address public owner;\n  ERC20Token tokenContract;\n\n  uint numberOfStakers;\n  uint minimumStake;\n  uint public totalStaked;\n\n  mapping(address => uint256) stakerInfo;\n\n  function ACMainframeStake(address _tokenContractAddress) public {\n    owner = msg.sender;\n    minimumStake = 100;\n    tokenContract = ERC20Token(_tokenContractAddress);\n  }\n\n  function kill() public {\n    if(msg.sender == owner)\n      selfdestruct(owner);\n  }\n\n  function stakeTokens(uint256 tokens) public returns (uint256) {\n    require(tokenContract.transferFrom(msg.sender, this, tokens));\n    stakerInfo[msg.sender] += tokens;\n    totalStaked += tokens;\n    return 300;\n  }\n\n  function receiveApproval(address _sender, uint256 _value, ERC20Token _tokenContract, bytes _extraData) public {\n    require(_tokenContract == tokenContract);\n    require(_tokenContract.transferFrom(_sender, address(this), _value));\n    stakerInfo[_sender] += _value;\n    totalStaked += _value;\n  }\n\n  function withdrawStake(uint256 tokens) public {\n    require(msg.sender != address(0));\n    require(tokens <= stakerInfo[msg.sender]);\n    tokenContract.transfer(msg.sender, tokens);\n    stakerInfo[msg.sender] -= tokens;\n    totalStaked -= tokens;\n  }\n\n  function totalStaked() public view returns (uint) {\n    return totalStaked;\n  }\n\n  function amountStaked(address _address) public view returns (uint256 balance) {\n    return stakerInfo[_address];\n  }\n\n  function hasStake(address _address) public view returns (bool) {\n    return stakerInfo[_address] > 0;\n  }\n\n}\n",
  "sourcePath": "/Users/adamclarke/apps/dapp-playground/contracts/ACMainframeStake.sol",
  "compiler": {
    "name": "solc",
    "version": "0.4.19+commit.c4cbbb05.Emscripten.clang"
  },
  "schemaVersion": "1.0.1",
  "updatedAt": "2018-02-08T17:52:43.106Z"
}