{
  "contractName": "MainframeStake",
  "abi": [
    {
      "constant": true,
      "inputs": [
        {
          "name": "",
          "type": "address"
        }
      ],
      "name": "balances",
      "outputs": [
        {
          "name": "",
          "type": "uint256"
        }
      ],
      "payable": false,
      "stateMutability": "view",
      "type": "function"
    },
    {
      "constant": false,
      "inputs": [
        {
          "name": "_value",
          "type": "uint256"
        }
      ],
      "name": "withdraw",
      "outputs": [
        {
          "name": "success",
          "type": "bool"
        }
      ],
      "payable": false,
      "stateMutability": "nonpayable",
      "type": "function"
    },
    {
      "constant": true,
      "inputs": [],
      "name": "totalStaked",
      "outputs": [
        {
          "name": "",
          "type": "uint256"
        }
      ],
      "payable": false,
      "stateMutability": "view",
      "type": "function"
    },
    {
      "constant": false,
      "inputs": [
        {
          "name": "_value",
          "type": "uint256"
        }
      ],
      "name": "deposit",
      "outputs": [
        {
          "name": "success",
          "type": "bool"
        }
      ],
      "payable": false,
      "stateMutability": "nonpayable",
      "type": "function"
    },
    {
      "constant": true,
      "inputs": [
        {
          "name": "_owner",
          "type": "address"
        }
      ],
      "name": "tokenBalanceOf",
      "outputs": [
        {
          "name": "balance",
          "type": "uint256"
        }
      ],
      "payable": false,
      "stateMutability": "view",
      "type": "function"
    },
    {
      "constant": true,
      "inputs": [
        {
          "name": "_address",
          "type": "address"
        }
      ],
      "name": "hasStake",
      "outputs": [
        {
          "name": "",
          "type": "bool"
        }
      ],
      "payable": false,
      "stateMutability": "view",
      "type": "function"
    },
    {
      "inputs": [
        {
          "name": "_tokenAddress",
          "type": "address"
        }
      ],
      "payable": false,
      "stateMutability": "nonpayable",
      "type": "constructor"
    },
    {
      "anonymous": false,
      "inputs": [
        {
          "indexed": true,
          "name": "_owner",
          "type": "address"
        },
        {
          "indexed": false,
          "name": "_value",
          "type": "uint256"
        },
        {
          "indexed": false,
          "name": "_balance",
          "type": "uint256"
        }
      ],
      "name": "Deposit",
      "type": "event"
    },
    {
      "anonymous": false,
      "inputs": [
        {
          "indexed": true,
          "name": "_owner",
          "type": "address"
        },
        {
          "indexed": false,
          "name": "_value",
          "type": "uint256"
        },
        {
          "indexed": false,
          "name": "_balance",
          "type": "uint256"
        }
      ],
      "name": "Withdrawal",
      "type": "event"
    },
    {
      "constant": true,
      "inputs": [
        {
          "name": "_owner",
          "type": "address"
        }
      ],
      "name": "balanceOf",
      "outputs": [
        {
          "name": "balance",
          "type": "uint256"
        }
      ],
      "payable": false,
      "stateMutability": "view",
      "type": "function"
    }
  ],
  "bytecode": "0x6060604052341561000f57600080fd5b6040516020806108ed8339810160405280805190602001909190505080600160006101000a81548173ffffffffffffffffffffffffffffffffffffffff021916908373ffffffffffffffffffffffffffffffffffffffff160217905550506108718061007c6000396000f300606060405260043610610083576000357c0100000000000000000000000000000000000000000000000000000000900463ffffffff16806327e235e3146100885780632e1a7d4d146100d557806370a0823114610110578063817b1cd21461015d578063b6b55f2514610186578063e42c08f2146101c1578063e73e14bf1461020e575b600080fd5b341561009357600080fd5b6100bf600480803573ffffffffffffffffffffffffffffffffffffffff1690602001909190505061025f565b6040518082815260200191505060405180910390f35b34156100e057600080fd5b6100f66004808035906020019091905050610277565b604051808215151515815260200191505060405180910390f35b341561011b57600080fd5b610147600480803573ffffffffffffffffffffffffffffffffffffffff169060200190919050506104a8565b6040518082815260200191505060405180910390f35b341561016857600080fd5b6101706104f0565b6040518082815260200191505060405180910390f35b341561019157600080fd5b6101a760048080359060200190919050506104fa565b604051808215151515815260200191505060405180910390f35b34156101cc57600080fd5b6101f8600480803573ffffffffffffffffffffffffffffffffffffffff16906020019091905050610712565b6040518082815260200191505060405180910390f35b341561021957600080fd5b610245600480803573ffffffffffffffffffffffffffffffffffffffff169060200190919050506107fb565b604051808215151515815260200191505060405180910390f35b60006020528060005260406000206000915090505481565b6000816000803373ffffffffffffffffffffffffffffffffffffffff1673ffffffffffffffffffffffffffffffffffffffff16815260200190815260200160002054101515156102c657600080fd5b600160009054906101000a900473ffffffffffffffffffffffffffffffffffffffff1673ffffffffffffffffffffffffffffffffffffffff1663a9059cbb33846000604051602001526040518363ffffffff167c0100000000000000000000000000000000000000000000000000000000028152600401808373ffffffffffffffffffffffffffffffffffffffff1673ffffffffffffffffffffffffffffffffffffffff16815260200182815260200192505050602060405180830381600087803b151561039357600080fd5b6102c65a03f115156103a457600080fd5b5050506040518051905050816000803373ffffffffffffffffffffffffffffffffffffffff1673ffffffffffffffffffffffffffffffffffffffff16815260200190815260200160002060008282540392505081905550816002600082825403925050819055503373ffffffffffffffffffffffffffffffffffffffff167fdf273cb619d95419a9cd0ec88123a0538c85064229baa6363788f743fff90deb836000803373ffffffffffffffffffffffffffffffffffffffff1673ffffffffffffffffffffffffffffffffffffffff16815260200190815260200160002054604051808381526020018281526020019250505060405180910390a260019050919050565b60008060008373ffffffffffffffffffffffffffffffffffffffff1673ffffffffffffffffffffffffffffffffffffffff168152602001908152602001600020549050919050565b6000600254905090565b6000600160009054906101000a900473ffffffffffffffffffffffffffffffffffffffff1673ffffffffffffffffffffffffffffffffffffffff166323b872dd3330856000604051602001526040518463ffffffff167c0100000000000000000000000000000000000000000000000000000000028152600401808473ffffffffffffffffffffffffffffffffffffffff1673ffffffffffffffffffffffffffffffffffffffff1681526020018373ffffffffffffffffffffffffffffffffffffffff1673ffffffffffffffffffffffffffffffffffffffff1681526020018281526020019350505050602060405180830381600087803b15156105fd57600080fd5b6102c65a03f1151561060e57600080fd5b5050506040518051905050816000803373ffffffffffffffffffffffffffffffffffffffff1673ffffffffffffffffffffffffffffffffffffffff16815260200190815260200160002060008282540192505081905550816002600082825401925050819055503373ffffffffffffffffffffffffffffffffffffffff167f90890809c654f11d6e72a28fa60149770a0d11ec6c92319d6ceb2bb0a4ea1a15836000803373ffffffffffffffffffffffffffffffffffffffff1673ffffffffffffffffffffffffffffffffffffffff16815260200190815260200160002054604051808381526020018281526020019250505060405180910390a260019050919050565b6000600160009054906101000a900473ffffffffffffffffffffffffffffffffffffffff1673ffffffffffffffffffffffffffffffffffffffff166370a08231836000604051602001526040518263ffffffff167c0100000000000000000000000000000000000000000000000000000000028152600401808273ffffffffffffffffffffffffffffffffffffffff1673ffffffffffffffffffffffffffffffffffffffff168152602001915050602060405180830381600087803b15156107d957600080fd5b6102c65a03f115156107ea57600080fd5b505050604051805190509050919050565b6000806000808473ffffffffffffffffffffffffffffffffffffffff1673ffffffffffffffffffffffffffffffffffffffff168152602001908152602001600020541190509190505600a165627a7a723058201071e63689625038b204a5816dc310edd26a2b298b0876cf62ba2342cd1b30560029",
  "source": "pragma solidity ^0.4.18;\n\ncontract MainframeToken {\n  function transferFrom(address from, address to, uint256 value) public returns (bool);\n  function transfer(address to, uint256 value) public returns (bool);\n\tfunction balanceOf(address who) public view returns (uint256);\n}\n\ncontract MainframeStake {\n  mapping (address => uint256) public balances;\n  MainframeToken token;\n  uint256 public totalStaked;\n\n  function MainframeStake(address _tokenAddress) public {\n    token = MainframeToken(_tokenAddress);\n  }\n\n  function deposit(uint256 _value) public returns (bool success) {\n    token.transferFrom(msg.sender, this, _value);\n    balances[msg.sender] += _value;\n    totalStaked += _value;\n    Deposit(msg.sender, _value, balances[msg.sender]);\n    return true;\n  }\n\n  function withdraw(uint256 _value) public returns (bool success) {\n    require(balances[msg.sender] >= _value);\n    token.transfer(msg.sender, _value);\n    balances[msg.sender] -= _value;\n    totalStaked -= _value;\n    Withdrawal(msg.sender, _value, balances[msg.sender]);\n    return true;\n  }\n\n  function balanceOf(address _owner) public view returns (uint256 balance) {\n    return balances[_owner];\n  }\n\n  function tokenBalanceOf(address _owner) public view returns (uint256 balance) {\n    return token.balanceOf(_owner);\n  }\n\n  function totalStaked() public view returns (uint256) {\n    return totalStaked;\n  }\n\n  function hasStake(address _address) public view returns (bool) {\n    return balances[_address] > 0;\n  }\n\n  event Deposit(address indexed _owner, uint256 _value, uint256 _balance);\n  event Withdrawal(address indexed _owner, uint256 _value, uint256 _balance);\n}\n",
  "sourcePath": "/Users/adamclarke/apps/dapp-playground/contracts/MainframeStake.sol",
  "compiler": {
    "name": "solc",
    "version": "0.4.19+commit.c4cbbb05.Emscripten.clang"
  },
  "schemaVersion": "1.0.1",
  "updatedAt": "2018-02-12T15:17:10.784Z"
}